:02000000032BD0
:0E000600213083120313FD00FD0B07280800B4
:100014000F3083120313FC004730FD00FD0B102842
:0A002400FC0B10280000000008008B
:06002E00000000000800C4
:1000340083120313C11B2028861321288617411B12
:100044002528061326280617C11A2A2886122B28C3
:100054008616411A2F280612302806163618342818
:10006400061535280611861517208611C1193C2856
:1000740086133D288617411941280613422806177E
:10008400C118462886124728861641184B2806129E
:100094004C280616361850280615512806118615C0
:1000A40017208611361C58280A20592803200800D6
:0800B400FA1FF21300300800EE
:1000BC007B15FB1F68280130F300F201F101F00100
:0800CC00FA0DF20CFF300800F0
:0E00D400F201F101F001F801F3010030080023
:1000E2000E3083120313FD00FD0B7528000008007B
:1000F2008312031336104008C1001A203614080078
:0E010200831203132B088A002A0882000800CB
:100110007B14FB1F9328F201FA1FFF30F200F1005D
:0A012000F000FA0DF20CFF300800A9
:10012A00710DF80DF90D7408F8027508031C750FA6
:10013A00F902F00DF10D0F30FC00710DF80DF90DFB
:10014A007408701CAE28F8027508031C750FF902B2
:10015A00B328F80775080318750FF907F00DF10DA4
:10016A00FC0BA2287018BF287408F8077508031832
:08017A00750FF90700000800F1
:10018200A0017208031DD6287108F2007008F10060
:10019200F001A0157208031DD6287108F200F101C2
:1001A200A011201672080319E4282008F302031D87
:1001B200031CE8280310F21BEC28F00DF10DF20DE0
:1001C200F30BDC28E8280130FC006A20EF2802301B
:0E01D200FC005E20EF280430FC005A200800DC
:1001E000FB14FB1FFA28FF30F300F200F100F000CF
:0801F000FA0DF20CFF300800CB
:1001F800831203137008F8007108F000F101F2018E
:10020800F301FB01FC019630F300FA01F01F1229FB
:10021800F809F009F80A0319F00AFA177008F1004A
:0C0228007808F000F801F201C120080085
:10023400831203139F01C0309F042109F00070084A
:1002440083169F051F179F1783123C08F000F00DBB
:100254007010F00D7010F00D701070089F041F14D2
:1002640071201F151F1D3829000034291F101E0876
:10027400F100F00183161E08F0040030F1040800B8
:1002840083120313FB017308031D770803199929CB
:1002940072087606FA007708F3077E30031C5629A5
:1002A400F30203189C295929F302031C9F2972089D
:1002B400F8007108FC007008FD00F817F617031029
:1002C400F201F101F0011830A0007D1C73297408BB
:1002D400F00775080318750FF10776080318760FF1
:1002E400F207F20CF10CF00CF80CFC0CFD0C0310F2
:1002F400A00B6729F21B8329F80DF00DF10DF20D07
:10030400F3037B1B701C9529F81F9529F00A031928
:10031400F10A0319F20A031D9529F20CF10CF00CF1
:10032400F30A03199C29FA1FF2130030A1290130A2
:100334006A20A1290230F020A12904305E200000A7
:020344000800AF
:1003460083120313FB0173080319E0297208FA00EC
:10035600F2178E30F302F31FE329F309F30A08308C
:100366007302031CC629F300F10D7208F100F201B5
:1003760008307302031CC629F300F10DF10173085E
:10038600031D0310CE2973080319CE290310F20C9E
:10039600F10CF30BC9297B1B711CD829031CD82926
:1003A600F10A0319F20AF21BEF29FA1FF229F209E0
:1003B600F109F10A0319F20AF229F201F101F2290F
:1003C6007B14FB1FF529F201FA1FF529FF30F20015
:1003D600F100FA0DF20CF5290130FC00F729003086
:1003E600FC00F729FF30FC00FC080319FB298820D4
:0A03F6007108F0007208F100080021
:10040000831603138611061106128612061386132D
:1004100083128611061186130613861206120A200D
:100420000A200A20861606168615172086110A202D
:100430008615172086110A208615172086110A2096
:1004400006128615172086110A2086151720861198
:10045000861286178615172086110A20861306161F
:1004600086151720861106128615172086110A2078
:1004700086151720861106168615172086110A2064
:100480000612861517208611861706178616061679
:0C0490008615172086110A20361408007B
:10049C00602A803083120313BC00732AC030BC0066
:1004AC00732A9430BC00732AD430BC00732A803079
:1004BC00BC00732A831203133C08013A03194F2A18
:1004CC003C08023A0319542A3C08033A0319572AE8
:1004DC003C08043A03195A2A5D2A3D03F0003C08F3
:1004EC00F0077008BC007008C1001A203610BF015C
:1004FC003F083E078400000803198C2A3F083E077A
:10050C0084000008C0007920BF0A7E2A3614080037
:10051C00831203137408003A031D9D2A7508003AD0
:10052C00031D9D2AFF30F0007F30F100F62A831264
:10053C000313FD01F901F80171087004031900346B
:10054C0071087506FA00FA1BFD09FB01F51FB32AA9
:10055C00F409F509F40A0319F50AF11FBA2AF0098E
:10056C00F109F00A0319F10A71087504FA00FA1B73
:10057C00CF2A95207B18E22AFD1F0034F009F109DF
:10058C00F00A0319F10AF809F909F80A0319F90A2A
:10059C000034F51FDE2AF11BDA2A7108F900700805
:1005AC00F800F101F001C22AF101F001F00A003467
:1005BC00F109F009FB0ABF2AF80A0319F90A7408B1
:1005CC007802031DC22A75087902031DC22AF9019B
:1005DC00F801F00A0319F10AF11FC22A0000FF34D6
:0205EC00080005
:1005EE0081208A110A128000840AAA0A0319AB0A12
:0805FE00F003031DF72A0800B9
:10060600B2230430831603139F0000220C30C1006E
:100616001A200130C1001A200130BC000130BD0093
:100626002230BE004E22BC011A2170088312B80087
:100636007108B9000A30F4000030F5008E22700807
:10064600BA007108BB003A08B8003B08B9000A3086
:10065600F4000030F5003A08F0003B08F1008E2265
:100666007808F0007908F1007008B700303070079C
:10067600AF000A30F4000030F5003A08F0003B08FD
:10068600F1008E227008BA007108BB003A08B80063
:100696003B08B9000A30F4000030F5003A08F000D3
:1006A6003B08F1008E227808F0007908F100700806
:1006B600B70030307007AE003A08F0003B08F10092
:1006C600FC20E330F4003630F5007A30F6007D3059
:1006D600F7004221A3217008B8007108B9000A305A
:1006E600F4000030F5008E227808F0007908F10059
:1006F6007008B70030307007AC002E30AD002030E7
:10070600B0005630B1006F30B2006C30B3007430B8
:10071600B4007330B5000230BC000730BD002C3089
:10072600BE004E220230FB000430FC00BA30FD0051
:10073600FD0B9B2BFC0B9B2BFB0B9B2B00000C2B15
:02074600A32BE3
:1007640021308400093083120313F000A930AA0059
:080774000330AB00F72208007E
:020752000F3462
:10075400523445344134443449344E3447340034FB
:00000001FF
